{
  "_format": "hh-sol-artifact-1",
  "contractName": "HX1000Token",
  "sourceName": "contracts/HX1000Token.sol",
  "abi": [
    {
      "inputs": [],
      "stateMutability": "nonpayable",
      "type": "constructor"
    },
    {
      "inputs": [
        {
          "internalType": "address",
          "name": "spender",
          "type": "address"
        },
        {
          "internalType": "uint256",
          "name": "allowance",
          "type": "uint256"
        },
        {
          "internalType": "uint256",
          "name": "needed",
          "type": "uint256"
        }
      ],
      "name": "ERC20InsufficientAllowance",
      "type": "error"
    },
    {
      "inputs": [
        {
          "internalType": "address",
          "name": "sender",
          "type": "address"
        },
        {
          "internalType": "uint256",
          "name": "balance",
          "type": "uint256"
        },
        {
          "internalType": "uint256",
          "name": "needed",
          "type": "uint256"
        }
      ],
      "name": "ERC20InsufficientBalance",
      "type": "error"
    },
    {
      "inputs": [
        {
          "internalType": "address",
          "name": "approver",
          "type": "address"
        }
      ],
      "name": "ERC20InvalidApprover",
      "type": "error"
    },
    {
      "inputs": [
        {
          "internalType": "address",
          "name": "receiver",
          "type": "address"
        }
      ],
      "name": "ERC20InvalidReceiver",
      "type": "error"
    },
    {
      "inputs": [
        {
          "internalType": "address",
          "name": "sender",
          "type": "address"
        }
      ],
      "name": "ERC20InvalidSender",
      "type": "error"
    },
    {
      "inputs": [
        {
          "internalType": "address",
          "name": "spender",
          "type": "address"
        }
      ],
      "name": "ERC20InvalidSpender",
      "type": "error"
    },
    {
      "inputs": [
        {
          "internalType": "address",
          "name": "owner",
          "type": "address"
        }
      ],
      "name": "OwnableInvalidOwner",
      "type": "error"
    },
    {
      "inputs": [
        {
          "internalType": "address",
          "name": "account",
          "type": "address"
        }
      ],
      "name": "OwnableUnauthorizedAccount",
      "type": "error"
    },
    {
      "anonymous": false,
      "inputs": [
        {
          "indexed": true,
          "internalType": "address",
          "name": "owner",
          "type": "address"
        },
        {
          "indexed": true,
          "internalType": "address",
          "name": "spender",
          "type": "address"
        },
        {
          "indexed": false,
          "internalType": "uint256",
          "name": "value",
          "type": "uint256"
        }
      ],
      "name": "Approval",
      "type": "event"
    },
    {
      "anonymous": false,
      "inputs": [
        {
          "indexed": true,
          "internalType": "address",
          "name": "previousOwner",
          "type": "address"
        },
        {
          "indexed": true,
          "internalType": "address",
          "name": "newOwner",
          "type": "address"
        }
      ],
      "name": "OwnershipTransferred",
      "type": "event"
    },
    {
      "anonymous": false,
      "inputs": [
        {
          "indexed": true,
          "internalType": "address",
          "name": "to",
          "type": "address"
        },
        {
          "indexed": false,
          "internalType": "uint256",
          "name": "amount",
          "type": "uint256"
        },
        {
          "indexed": false,
          "internalType": "string",
          "name": "pixReference",
          "type": "string"
        }
      ],
      "name": "TokensDistributed",
      "type": "event"
    },
    {
      "anonymous": false,
      "inputs": [
        {
          "indexed": true,
          "internalType": "address",
          "name": "from",
          "type": "address"
        },
        {
          "indexed": true,
          "internalType": "address",
          "name": "to",
          "type": "address"
        },
        {
          "indexed": false,
          "internalType": "uint256",
          "name": "value",
          "type": "uint256"
        }
      ],
      "name": "Transfer",
      "type": "event"
    },
    {
      "inputs": [],
      "name": "INITIAL_SUPPLY",
      "outputs": [
        {
          "internalType": "uint256",
          "name": "",
          "type": "uint256"
        }
      ],
      "stateMutability": "view",
      "type": "function"
    },
    {
      "inputs": [],
      "name": "TOKEN_PRICE_BRL",
      "outputs": [
        {
          "internalType": "uint256",
          "name": "",
          "type": "uint256"
        }
      ],
      "stateMutability": "view",
      "type": "function"
    },
    {
      "inputs": [
        {
          "internalType": "address",
          "name": "owner",
          "type": "address"
        },
        {
          "internalType": "address",
          "name": "spender",
          "type": "address"
        }
      ],
      "name": "allowance",
      "outputs": [
        {
          "internalType": "uint256",
          "name": "",
          "type": "uint256"
        }
      ],
      "stateMutability": "view",
      "type": "function"
    },
    {
      "inputs": [
        {
          "internalType": "address",
          "name": "spender",
          "type": "address"
        },
        {
          "internalType": "uint256",
          "name": "value",
          "type": "uint256"
        }
      ],
      "name": "approve",
      "outputs": [
        {
          "internalType": "bool",
          "name": "",
          "type": "bool"
        }
      ],
      "stateMutability": "nonpayable",
      "type": "function"
    },
    {
      "inputs": [
        {
          "internalType": "address",
          "name": "account",
          "type": "address"
        }
      ],
      "name": "balanceOf",
      "outputs": [
        {
          "internalType": "uint256",
          "name": "",
          "type": "uint256"
        }
      ],
      "stateMutability": "view",
      "type": "function"
    },
    {
      "inputs": [],
      "name": "decimals",
      "outputs": [
        {
          "internalType": "uint8",
          "name": "",
          "type": "uint8"
        }
      ],
      "stateMutability": "view",
      "type": "function"
    },
    {
      "inputs": [
        {
          "internalType": "address",
          "name": "to",
          "type": "address"
        },
        {
          "internalType": "uint256",
          "name": "amount",
          "type": "uint256"
        },
        {
          "internalType": "string",
          "name": "pixReference",
          "type": "string"
        }
      ],
      "name": "distributeTokens",
      "outputs": [],
      "stateMutability": "nonpayable",
      "type": "function"
    },
    {
      "inputs": [],
      "name": "name",
      "outputs": [
        {
          "internalType": "string",
          "name": "",
          "type": "string"
        }
      ],
      "stateMutability": "view",
      "type": "function"
    },
    {
      "inputs": [],
      "name": "owner",
      "outputs": [
        {
          "internalType": "address",
          "name": "",
          "type": "address"
        }
      ],
      "stateMutability": "view",
      "type": "function"
    },
    {
      "inputs": [],
      "name": "renounceOwnership",
      "outputs": [],
      "stateMutability": "nonpayable",
      "type": "function"
    },
    {
      "inputs": [],
      "name": "symbol",
      "outputs": [
        {
          "internalType": "string",
          "name": "",
          "type": "string"
        }
      ],
      "stateMutability": "view",
      "type": "function"
    },
    {
      "inputs": [],
      "name": "totalSupply",
      "outputs": [
        {
          "internalType": "uint256",
          "name": "",
          "type": "uint256"
        }
      ],
      "stateMutability": "view",
      "type": "function"
    },
    {
      "inputs": [
        {
          "internalType": "address",
          "name": "to",
          "type": "address"
        },
        {
          "internalType": "uint256",
          "name": "value",
          "type": "uint256"
        }
      ],
      "name": "transfer",
      "outputs": [
        {
          "internalType": "bool",
          "name": "",
          "type": "bool"
        }
      ],
      "stateMutability": "nonpayable",
      "type": "function"
    },
    {
      "inputs": [
        {
          "internalType": "address",
          "name": "from",
          "type": "address"
        },
        {
          "internalType": "address",
          "name": "to",
          "type": "address"
        },
        {
          "internalType": "uint256",
          "name": "value",
          "type": "uint256"
        }
      ],
      "name": "transferFrom",
      "outputs": [
        {
          "internalType": "bool",
          "name": "",
          "type": "bool"
        }
      ],
      "stateMutability": "nonpayable",
      "type": "function"
    },
    {
      "inputs": [
        {
          "internalType": "address",
          "name": "newOwner",
          "type": "address"
        }
      ],
      "name": "transferOwnership",
      "outputs": [],
      "stateMutability": "nonpayable",
      "type": "function"
    }
  ],
  "bytecode": "0x60806040523480156200001157600080fd5b50336040518060400160405280600c81526020017f48583130303020546f6b656e00000000000000000000000000000000000000008152506040518060400160405280600681526020017f485831303030000000000000000000000000000000000000000000000000000081525081600390816200009091906200074c565b508060049081620000a291906200074c565b505050600073ffffffffffffffffffffffffffffffffffffffff168173ffffffffffffffffffffffffffffffffffffffff16036200011a5760006040517f1e4fbdf700000000000000000000000000000000000000000000000000000000815260040162000111919062000878565b60405180910390fd5b6200012b816200014f60201b60201c565b5062000149336a115eec47f6cf7e350000006200021560201b60201c565b6200096a565b6000600560009054906101000a900473ffffffffffffffffffffffffffffffffffffffff16905081600560006101000a81548173ffffffffffffffffffffffffffffffffffffffff021916908373ffffffffffffffffffffffffffffffffffffffff1602179055508173ffffffffffffffffffffffffffffffffffffffff168173ffffffffffffffffffffffffffffffffffffffff167f8be0079c531659141344cd1fd0a4f28419497f9722a3daafe3b4186f6b6457e060405160405180910390a35050565b600073ffffffffffffffffffffffffffffffffffffffff168273ffffffffffffffffffffffffffffffffffffffff16036200028a5760006040517fec442f0500000000000000000000000000000000000000000000000000000000815260040162000281919062000878565b60405180910390fd5b6200029e60008383620002a260201b60201c565b5050565b600073ffffffffffffffffffffffffffffffffffffffff168373ffffffffffffffffffffffffffffffffffffffff1603620002f8578060026000828254620002eb9190620008c4565b92505081905550620003ce565b60008060008573ffffffffffffffffffffffffffffffffffffffff1673ffffffffffffffffffffffffffffffffffffffff1681526020019081526020016000205490508181101562000387578381836040517fe450d38c0000000000000000000000000000000000000000000000000000000081526004016200037e9392919062000910565b60405180910390fd5b8181036000808673ffffffffffffffffffffffffffffffffffffffff1673ffffffffffffffffffffffffffffffffffffffff16815260200190815260200160002081905550505b600073ffffffffffffffffffffffffffffffffffffffff168273ffffffffffffffffffffffffffffffffffffffff160362000419578060026000828254039250508190555062000466565b806000808473ffffffffffffffffffffffffffffffffffffffff1673ffffffffffffffffffffffffffffffffffffffff168152602001908152602001600020600082825401925050819055505b8173ffffffffffffffffffffffffffffffffffffffff168373ffffffffffffffffffffffffffffffffffffffff167fddf252ad1be2c89b69c2b068fc378daa952ba7f163c4a11628f55a4df523b3ef83604051620004c591906200094d565b60405180910390a3505050565b600081519050919050565b7f4e487b7100000000000000000000000000000000000000000000000000000000600052604160045260246000fd5b7f4e487b7100000000000000000000000000000000000000000000000000000000600052602260045260246000fd5b600060028204905060018216806200055457607f821691505b6020821081036200056a57620005696200050c565b5b50919050565b60008190508160005260206000209050919050565b60006020601f8301049050919050565b600082821b905092915050565b600060088302620005d47fffffffffffffffffffffffffffffffffffffffffffffffffffffffffffffffff8262000595565b620005e0868362000595565b95508019841693508086168417925050509392505050565b6000819050919050565b6000819050919050565b60006200062d620006276200062184620005f8565b62000602565b620005f8565b9050919050565b6000819050919050565b62000649836200060c565b62000661620006588262000634565b848454620005a2565b825550505050565b600090565b6200067862000669565b620006858184846200063e565b505050565b5b81811015620006ad57620006a16000826200066e565b6001810190506200068b565b5050565b601f821115620006fc57620006c68162000570565b620006d18462000585565b81016020851015620006e1578190505b620006f9620006f08562000585565b8301826200068a565b50505b505050565b600082821c905092915050565b6000620007216000198460080262000701565b1980831691505092915050565b60006200073c83836200070e565b9150826002028217905092915050565b6200075782620004d2565b67ffffffffffffffff811115620007735762000772620004dd565b5b6200077f82546200053b565b6200078c828285620006b1565b600060209050601f831160018114620007c45760008415620007af578287015190505b620007bb85826200072e565b8655506200082b565b601f198416620007d48662000570565b60005b82811015620007fe57848901518255600182019150602085019450602081019050620007d7565b868310156200081e57848901516200081a601f8916826200070e565b8355505b6001600288020188555050505b505050505050565b600073ffffffffffffffffffffffffffffffffffffffff82169050919050565b6000620008608262000833565b9050919050565b620008728162000853565b82525050565b60006020820190506200088f600083018462000867565b92915050565b7f4e487b7100000000000000000000000000000000000000000000000000000000600052601160045260246000fd5b6000620008d182620005f8565b9150620008de83620005f8565b9250828201905080821115620008f957620008f862000895565b5b92915050565b6200090a81620005f8565b82525050565b600060608201905062000927600083018662000867565b620009366020830185620008ff565b620009456040830184620008ff565b949350505050565b6000602082019050620009646000830184620008ff565b92915050565b611488806200097a6000396000f3fe608060405234801561001057600080fd5b50600436106100f55760003560e01c8063715018a611610097578063b668a8d211610066578063b668a8d214610278578063dd62ed3e14610294578063e9fd33b0146102c4578063f2fde38b146102e2576100f5565b8063715018a6146102025780638da5cb5b1461020c57806395d89b411461022a578063a9059cbb14610248576100f5565b806323b872dd116100d357806323b872dd146101665780632ff2e9dc14610196578063313ce567146101b457806370a08231146101d2576100f5565b806306fdde03146100fa578063095ea7b31461011857806318160ddd14610148575b600080fd5b6101026102fe565b60405161010f9190610e8d565b60405180910390f35b610132600480360381019061012d9190610f57565b610390565b60405161013f9190610fb2565b60405180910390f35b6101506103b3565b60405161015d9190610fdc565b60405180910390f35b610180600480360381019061017b9190610ff7565b6103bd565b60405161018d9190610fb2565b60405180910390f35b61019e6103ec565b6040516101ab9190610fdc565b60405180910390f35b6101bc6103fb565b6040516101c99190611066565b60405180910390f35b6101ec60048036038101906101e79190611081565b610404565b6040516101f99190610fdc565b60405180910390f35b61020a61044c565b005b610214610460565b60405161022191906110bd565b60405180910390f35b61023261048a565b60405161023f9190610e8d565b60405180910390f35b610262600480360381019061025d9190610f57565b61051c565b60405161026f9190610fb2565b60405180910390f35b610292600480360381019061028d919061120d565b61053f565b005b6102ae60048036038101906102a9919061127c565b610600565b6040516102bb9190610fdc565b60405180910390f35b6102cc610687565b6040516102d99190610fdc565b60405180910390f35b6102fc60048036038101906102f79190611081565b61068c565b005b60606003805461030d906112eb565b80601f0160208091040260200160405190810160405280929190818152602001828054610339906112eb565b80156103865780601f1061035b57610100808354040283529160200191610386565b820191906000526020600020905b81548152906001019060200180831161036957829003601f168201915b5050505050905090565b60008061039b610712565b90506103a881858561071a565b600191505092915050565b6000600254905090565b6000806103c8610712565b90506103d585828561072c565b6103e08585856107c0565b60019150509392505050565b6a115eec47f6cf7e3500000081565b60006012905090565b60008060008373ffffffffffffffffffffffffffffffffffffffff1673ffffffffffffffffffffffffffffffffffffffff168152602001908152602001600020549050919050565b6104546108b4565b61045e600061093b565b565b6000600560009054906101000a900473ffffffffffffffffffffffffffffffffffffffff16905090565b606060048054610499906112eb565b80601f01602080910402602001604051908101604052809291908181526020018280546104c5906112eb565b80156105125780601f106104e757610100808354040283529160200191610512565b820191906000526020600020905b8154815290600101906020018083116104f557829003601f168201915b5050505050905090565b600080610527610712565b90506105348185856107c0565b600191505092915050565b6105476108b4565b81610558610553610460565b610404565b1015610599576040517f08c379a000000000000000000000000000000000000000000000000000000000815260040161059090611368565b60405180910390fd5b6105ab6105a4610460565b84846107c0565b8273ffffffffffffffffffffffffffffffffffffffff167f56c502c6e99329b8657fcef46fe4aaa9cd5d10463c1bd534ec0a09e31c09ae3983836040516105f3929190611388565b60405180910390a2505050565b6000600160008473ffffffffffffffffffffffffffffffffffffffff1673ffffffffffffffffffffffffffffffffffffffff16815260200190815260200160002060008373ffffffffffffffffffffffffffffffffffffffff1673ffffffffffffffffffffffffffffffffffffffff16815260200190815260200160002054905092915050565b60ee81565b6106946108b4565b600073ffffffffffffffffffffffffffffffffffffffff168173ffffffffffffffffffffffffffffffffffffffff16036107065760006040517f1e4fbdf70000000000000000000000000000000000000000000000000000000081526004016106fd91906110bd565b60405180910390fd5b61070f8161093b565b50565b600033905090565b6107278383836001610a01565b505050565b60006107388484610600565b90507fffffffffffffffffffffffffffffffffffffffffffffffffffffffffffffffff81146107ba57818110156107aa578281836040517ffb8f41b20000000000000000000000000000000000000000000000000000000081526004016107a1939291906113b8565b60405180910390fd5b6107b984848484036000610a01565b5b50505050565b600073ffffffffffffffffffffffffffffffffffffffff168373ffffffffffffffffffffffffffffffffffffffff16036108325760006040517f96c6fd1e00000000000000000000000000000000000000000000000000000000815260040161082991906110bd565b60405180910390fd5b600073ffffffffffffffffffffffffffffffffffffffff168273ffffffffffffffffffffffffffffffffffffffff16036108a45760006040517fec442f0500000000000000000000000000000000000000000000000000000000815260040161089b91906110bd565b60405180910390fd5b6108af838383610bd8565b505050565b6108bc610712565b73ffffffffffffffffffffffffffffffffffffffff166108da610460565b73ffffffffffffffffffffffffffffffffffffffff1614610939576108fd610712565b6040517f118cdaa700000000000000000000000000000000000000000000000000000000815260040161093091906110bd565b60405180910390fd5b565b6000600560009054906101000a900473ffffffffffffffffffffffffffffffffffffffff16905081600560006101000a81548173ffffffffffffffffffffffffffffffffffffffff021916908373ffffffffffffffffffffffffffffffffffffffff1602179055508173ffffffffffffffffffffffffffffffffffffffff168173ffffffffffffffffffffffffffffffffffffffff167f8be0079c531659141344cd1fd0a4f28419497f9722a3daafe3b4186f6b6457e060405160405180910390a35050565b600073ffffffffffffffffffffffffffffffffffffffff168473ffffffffffffffffffffffffffffffffffffffff1603610a735760006040517fe602df05000000000000000000000000000000000000000000000000000000008152600401610a6a91906110bd565b60405180910390fd5b600073ffffffffffffffffffffffffffffffffffffffff168373ffffffffffffffffffffffffffffffffffffffff1603610ae55760006040517f94280d62000000000000000000000000000000000000000000000000000000008152600401610adc91906110bd565b60405180910390fd5b81600160008673ffffffffffffffffffffffffffffffffffffffff1673ffffffffffffffffffffffffffffffffffffffff16815260200190815260200160002060008573ffffffffffffffffffffffffffffffffffffffff1673ffffffffffffffffffffffffffffffffffffffff168152602001908152602001600020819055508015610bd2578273ffffffffffffffffffffffffffffffffffffffff168473ffffffffffffffffffffffffffffffffffffffff167f8c5be1e5ebec7d5bd14f71427d1e84f3dd0314c0f7b2291e5b200ac8c7c3b92584604051610bc99190610fdc565b60405180910390a35b50505050565b600073ffffffffffffffffffffffffffffffffffffffff168373ffffffffffffffffffffffffffffffffffffffff1603610c2a578060026000828254610c1e919061141e565b92505081905550610cfd565b60008060008573ffffffffffffffffffffffffffffffffffffffff1673ffffffffffffffffffffffffffffffffffffffff16815260200190815260200160002054905081811015610cb6578381836040517fe450d38c000000000000000000000000000000000000000000000000000000008152600401610cad939291906113b8565b60405180910390fd5b8181036000808673ffffffffffffffffffffffffffffffffffffffff1673ffffffffffffffffffffffffffffffffffffffff16815260200190815260200160002081905550505b600073ffffffffffffffffffffffffffffffffffffffff168273ffffffffffffffffffffffffffffffffffffffff1603610d465780600260008282540392505081905550610d93565b806000808473ffffffffffffffffffffffffffffffffffffffff1673ffffffffffffffffffffffffffffffffffffffff168152602001908152602001600020600082825401925050819055505b8173ffffffffffffffffffffffffffffffffffffffff168373ffffffffffffffffffffffffffffffffffffffff167fddf252ad1be2c89b69c2b068fc378daa952ba7f163c4a11628f55a4df523b3ef83604051610df09190610fdc565b60405180910390a3505050565b600081519050919050565b600082825260208201905092915050565b60005b83811015610e37578082015181840152602081019050610e1c565b60008484015250505050565b6000601f19601f8301169050919050565b6000610e5f82610dfd565b610e698185610e08565b9350610e79818560208601610e19565b610e8281610e43565b840191505092915050565b60006020820190508181036000830152610ea78184610e54565b905092915050565b6000604051905090565b600080fd5b600080fd5b600073ffffffffffffffffffffffffffffffffffffffff82169050919050565b6000610eee82610ec3565b9050919050565b610efe81610ee3565b8114610f0957600080fd5b50565b600081359050610f1b81610ef5565b92915050565b6000819050919050565b610f3481610f21565b8114610f3f57600080fd5b50565b600081359050610f5181610f2b565b92915050565b60008060408385031215610f6e57610f6d610eb9565b5b6000610f7c85828601610f0c565b9250506020610f8d85828601610f42565b9150509250929050565b60008115159050919050565b610fac81610f97565b82525050565b6000602082019050610fc76000830184610fa3565b92915050565b610fd681610f21565b82525050565b6000602082019050610ff16000830184610fcd565b92915050565b6000806000606084860312156110105761100f610eb9565b5b600061101e86828701610f0c565b935050602061102f86828701610f0c565b925050604061104086828701610f42565b9150509250925092565b600060ff82169050919050565b6110608161104a565b82525050565b600060208201905061107b6000830184611057565b92915050565b60006020828403121561109757611096610eb9565b5b60006110a584828501610f0c565b91505092915050565b6110b781610ee3565b82525050565b60006020820190506110d260008301846110ae565b92915050565b600080fd5b600080fd5b7f4e487b7100000000000000000000000000000000000000000000000000000000600052604160045260246000fd5b61111a82610e43565b810181811067ffffffffffffffff82111715611139576111386110e2565b5b80604052505050565b600061114c610eaf565b90506111588282611111565b919050565b600067ffffffffffffffff821115611178576111776110e2565b5b61118182610e43565b9050602081019050919050565b82818337600083830152505050565b60006111b06111ab8461115d565b611142565b9050828152602081018484840111156111cc576111cb6110dd565b5b6111d784828561118e565b509392505050565b600082601f8301126111f4576111f36110d8565b5b813561120484826020860161119d565b91505092915050565b60008060006060848603121561122657611225610eb9565b5b600061123486828701610f0c565b935050602061124586828701610f42565b925050604084013567ffffffffffffffff81111561126657611265610ebe565b5b611272868287016111df565b9150509250925092565b6000806040838503121561129357611292610eb9565b5b60006112a185828601610f0c565b92505060206112b285828601610f0c565b9150509250929050565b7f4e487b7100000000000000000000000000000000000000000000000000000000600052602260045260246000fd5b6000600282049050600182168061130357607f821691505b602082108103611316576113156112bc565b5b50919050565b7f496e73756666696369656e7420746f6b656e7300000000000000000000000000600082015250565b6000611352601383610e08565b915061135d8261131c565b602082019050919050565b6000602082019050818103600083015261138181611345565b9050919050565b600060408201905061139d6000830185610fcd565b81810360208301526113af8184610e54565b90509392505050565b60006060820190506113cd60008301866110ae565b6113da6020830185610fcd565b6113e76040830184610fcd565b949350505050565b7f4e487b7100000000000000000000000000000000000000000000000000000000600052601160045260246000fd5b600061142982610f21565b915061143483610f21565b925082820190508082111561144c5761144b6113ef565b5b9291505056fea26469706673582212200884ce997081f02f7b24692055396f7ddf156cca1f2bc2ce9bcd4497c2e2f27f64736f6c63430008140033",
  "linkReferences": {},
  "deployedLinkReferences": {}
}